:100000000C945D000C9485000C9485000C94850084
:100010000C9485000C9485000C9485000C9485004C
:100020000C9485000C9485000C9485000C94660556
:100030000C9485000C9485000C9485000C9485002C
:100040000C941C050C9485000C94EA040C94C404D4
:100050000C9485000C9485000C9485000C9485000C
:100060000C9427060C948500000000002400270053
:100070002A0000000000250028002B0004040404CE
:100080000404040402020202020203030303030342
:10009000010204081020408001020408102001021F
:1000A00004081020000000080002010000030407FB
:1000B0000000000000000000550711241FBECFEF14
:1000C000D8E0DEBFCDBF11E0A0E0B1E0E0EDF5E1AA
:1000D00002C005900D92AE35B107D9F723E0AEE529
:1000E000B1E001C01D92A933B207E1F710E0CDE500
:1000F000D0E004C02197FE010E94780ACC35D107D8
:10010000C9F70E949C070C94E60A0C940000EEE3E9
:10011000F2E0A089B18982E08C93A485B5851C9218
:10012000A685B7858FEC8C93108EA489B58986E05F
:100130008C93A289B3898C9180618C93A289B389B5
:100140008C9188608C93A289B3898C9180688C9300
:100150000288F389E02D80818F7D80830895CF927E
:10016000DF92EF92FF920F931F93CF93DF936C0177
:100170007A018B01C0E0D0E0CE15DF0589F0D8010F
:100180006D918D01D601ED91FC910190F081E02DF2
:10019000C6010995892B11F47E0102C02196ECCF8E
:1001A000C701DF91CF911F910F91FF90EF90DF90EA
:1001B000CF900895FC01918D828D981761F0828D0A
:1001C000DF01A80FB11D5D968C91928D9F5F9F738B
:1001D000928F90E008958FEF9FEF0895FC01918D2D
:1001E000828D981731F0828DE80FF11D858D90E09A
:1001F00008958FEF9FEF0895FC01918D228D892F37
:1002000090E0805C9F4F821B91098F73992708951E
:100210008EE392E00E94FC0021E0892B09F420E0AB
:10022000822F0895FC01848DDF01A80FB11DA35A10
:10023000BF4F2C91848D90E001968F739927848F06
:10024000A689B7892C93A089B1898C9180648C93FD
:10025000938D848D981306C00288F389E02D8081E8
:100260008F7D80830895EF92FF920F931F93CF931A
:10027000DF93EC0181E0888F9B8D8C8D981305C0F6
:10028000E889F989808185FD24C0F62E0B8D10E068
:100290000F5F1F4F0F731127E02E8C8DE8120CC0DB
:1002A0000FB607FCFACFE889F989808185FFF5CF81
:1002B000CE010E941201F1CF8B8DFE01E80FF11DDE
:1002C000E35AFF4FF0820B8FEA89FB8980818062BD
:1002D00007C0EE89FF896083E889F989808180649D
:1002E000808381E090E0DF91CF911F910F91FF908B
:1002F000EF900895CF93DF93EC01888D8823C9F0A8
:10030000EA89FB89808185FD05C0A889B9898C911E
:1003100086FD0FC00FB607FCF5CF808185FFF2CFB9
:10032000A889B9898C9185FFEDCFCE010E94120179
:10033000E7CFDF91CF91089580E090E0892B29F0FD
:100340000E94080181110C940000089590E0FC01C6
:10035000EC55FF4F3491FC01E057FF4F2491FC0115
:10036000E458FF4FE491EE2309F43BC0332339F105
:10037000333091F038F43130A9F0323001F584B5E2
:100380008F7D12C0373091F03830A1F03430B9F49D
:10039000809180008F7D03C0809180008F77809353
:1003A00080000DC084B58F7784BD09C08091B000F6
:1003B0008F7703C08091B0008F7D8093B000F0E014
:1003C000EE0FFF1FEE58FF4FA591B4918FB7F89431
:1003D000EC91611103C020952E2301C02E2B2C938C
:1003E0008FBF0895CF93DF9390E0FC01E057FF4F5C
:1003F0002491FC01E458FF4F8491882361F190E03F
:10040000880F991FFC01E859FF4FC591D491FC0159
:10041000EE58FF4FA591B491611109C09FB7F894B0
:100420008881209582238883EC912E230BC0623033
:1004300061F49FB7F8943881822F80958323888355
:10044000EC912E2B2C939FBF06C08FB7F894E881B8
:100450002E2B28838FBFDF91CF9108958E3008F027
:100460008E508770806480937C0080917A008064D5
:1004700080937A0080917A0086FDFCCF809178008D
:100480002091790090E0922B08953FB7F8948091E5
:10049000F4019091F501A091F601B091F70126B514
:1004A000A89B05C02F3F19F00196A11DB11D3FBFAC
:1004B000BA2FA92F982F8827820F911DA11DB11D3A
:1004C000BC01CD0142E0660F771F881F991F4A9536
:1004D000D1F708958F929F92AF92BF92CF92DF9201
:1004E000EF92FF926B017C010E9445024B015C017F
:1004F000C114D104E104F104F1F00E944502DC01D1
:10050000CB0188199909AA09BB09883E9340A10526
:10051000B10570F321E0C21AD108E108F10888EEB4
:10052000880E83E0981EA11CB11CC114D104E10403
:10053000F10419F7DDCFFF90EF90DF90CF90BF90DF
:10054000AF909F908F9008952FB7F8946091F0012D
:100550007091F1018091F2019091F3012FBF089504
:10056000CF92DF92EF92FF92CF93DF93EC01603254
:1005700082E078070CF03DC077FD06C0653B710551
:100580002CF064EB70E002C060E070E0898128E844
:1005900030E06901C81AD10887FDD394CC0CDD1C6A
:1005A000CC0CDD1C0D2C000CEE08FF088A8128E520
:1005B00032E0281B310987FD3395220F331F220FAC
:1005C000331FC901330FAA0BBB0B9C01AD012C19C2
:1005D0003D094E095F09DB010E94CF0A24EB30E0A0
:1005E00040E050E00E94A50AC20ED31EE41EF51E94
:1005F000B60188818C3080F5998148E850E0491B2C
:10060000510997FD5395440F551F440F551F64170B
:10061000750784F09A8128E532E0291B310997FD9E
:100620003395220F331F220F331FAB0126173707D5
:100630000CF4A90142505109440F551F2FB7F894EB
:1006400090E0FC01EE0FFF1F8E0F9F1FFC01E55392
:10065000FE4F528341832FBFDF91CF91FF90EF90E8
:10066000DF90CF9008951F93CF93DF93EC01162F67
:1006700088818C3008F04EC061E0812F0E94F20129
:100680008881E82FF0E09F01220F331FE20FF31F54
:10069000E553FE4F1F739081907C192B10831982B4
:1006A0001A826CE00E946C0A9CE0899FB0011124C0
:1006B00040E050E09A01260F371FF901EE0FFF1FAF
:1006C0002E0F3F1FF901E553FE4F908196FD16C096
:1006D0004F5F5F4F4C30510569F781110FC0109289
:1006E000800082E080938100109285001092840047
:1006F000B19A80916F00826080936F00E881F0E092
:10070000CF01880F991FE80FF91FE553FE4F808135
:10071000806480838881DF91CF911F910895FC01CF
:100720009091CA019C30A0F481E0890F8093CA01A6
:100730009083892F90E0FC01EE0FFF1F8E0F9F1F0B
:10074000FC01E553FE4F88EB9BE092838183089583
:100750008FEF8083089585ED8093BC008091BC006D
:1007600084FDFCCF1092FA01089540918001262F5C
:1007700030E0240F311D21323105DCF42091FA01E3
:100780002430C9F4FC0180E090E0861758F43091E1
:1007900080012191DC01A25ABE4FA30FB11D2C9301
:1007A0000196F3CF80918001680F6093800180E013
:1007B000089581E0089582E00895089581E090E031
:1007C0003091FE012091FD01321710F480E090E09D
:1007D00091958195910908958091FE019091FD0177
:1007E000891730F48F5F8093FE0180E090E00895D8
:1007F0008FEF9FEF08958091FD0190E02091FE0121
:10080000821B91090895CF93DF9300D0CDB7DEB757
:10081000CB01642F49835A830E94B5034981842FF9
:100820005A81952F0F900F90DF91CF910895CF931C
:10083000DF931F92CDB7DEB7698361E0CE010196E9
:100840000E94B50381E090E00F90DF91CF91089571
:100850006115710579F0FB0101900020E9F73197EE
:10086000AF01461B570BDC01ED91FC910280F38137
:10087000E02D099480E090E008954F925F926F928E
:100880007F92EF92FF920F931F93CF93DF93CDB799
:10089000DEB7A1970FB6F894DEBF0FBECDBF7C01C7
:1008A000FA01CB0119A2223008F42AE08E010F5D73
:1008B0001F4F422E512C612C712CBF01A3019201BC
:1008C0000E94830AF901CA01015011096A3014F427
:1008D000605D01C0695CD8016C93232B242B252B10
:1008E00061F7B801C7010E942804A1960FB6F894D9
:1008F000DEBF0FBECDBFDF91CF911F910F91FF9053
:10090000EF907F906F905F904F900895CF92DF921D
:10091000EF92FF92CF93DF936C01990FEE08FF08DF
:10092000F7FE21C0E0913E02F0913F020190F0817C
:10093000E02D6DE28EE392E00995EC014427552706
:10094000BA014C195D096E097F092AE08EE392E035
:100950000E943D048C0F9D1FDF91CF91FF90EF907F
:10096000DF90CF9008952AE0B701A6018EE392E0D0
:10097000DF91CF91FF90EF90DF90CF900C943D04EA
:100980000C9428040E947E0A1F920F920FB60F92B9
:1009900011242F933F934F935F936F937F938F9384
:1009A0009F93AF93BF93EF93FF938EE392E00E94E8
:1009B0001201FF91EF91BF91AF919F918F917F9124
:1009C0006F915F914F913F912F910F900FBE0F90BC
:1009D0001F9018951F920F920FB60F9211242F930C
:1009E0008F939F93EF93FF93E0914E02F0914F020C
:1009F0008081E0915402F091550282FD12C09081F5
:100A0000809157028F5F8F7320915802821751F0A7
:100A1000E0915702F0E0E25CFD4F958F8093570222
:100A200001C08081FF91EF919F918F912F910F9045
:100A30000FBE0F901F9018951F920F920FB60F9236
:100A400011242F933F938F939F93AF93BF938091E4
:100A5000F0019091F101A091F201B091F301309178
:100A6000EF0123E0230F2D3720F40196A11DB11DC6
:100A700005C026E8230F0296A11DB11D2093EF01AA
:100A80008093F0019093F101A093F201B093F301F0
:100A90008091F4019091F501A091F601B091F701D8
:100AA0000196A11DB11D8093F4019093F501A093CF
:100AB000F601B093F701BF91AF919F918F913F9154
:100AC0002F910F900FBE0F901F9018951F920F92AD
:100AD0000FB60F9211242F933F934F935F936F9311
:100AE0007F938F939F93AF93BF93EF93FF938091E7
:100AF000C90187FF05C010928500109284001BC0B9
:100B00002091C901022E000C330B8091CA0190E0A4
:100B10002817390784F48091C901082E000C990B1D
:100B2000FC01EE0FFF1F8E0F9F1FFC01E553FE4FD0
:100B3000808186FD15C08091C9018F5F8093C901B6
:100B40002091C901022E000C330B8091CA0190E064
:100B500028173907C4F48091C9018C3064F113C09F
:100B60008091C901082E000C990BFC01EE0FFF1FAC
:100B70008E0F9F1FFC01E553FE4F808160E08F7355
:100B80000E94A601D8CF80918400909185000496A0
:100B900080349C4918F480E49CE905C0809184006D
:100BA00090918500049690938900809388008FEF40
:100BB0008093C9013BC020918400309185008091D1
:100BC000C901082E000C990BFC01EE0FFF1F8E0FC0
:100BD0009F1FFC01E553FE4F81819281820F931F7D
:100BE00090938900809388008091C901082E000CA1
:100BF000990BFC01EE0FFF1F8E0F9F1FFC01E553A9
:100C0000FE4F808186FF12C08091C901082E000C22
:100C1000990BFC01EE0FFF1F8E0F9F1FFC01E55388
:100C2000FE4F808161E08F730E94A601FF91EF91DA
:100C3000BF91AF919F918F917F916F915F914F91F4
:100C40003F912F910F900FBE0F901F9018951F92FC
:100C50000F920FB60F9211242F933F934F935F93F0
:100C60006F937F938F939F93AF93BF93EF93FF9374
:100C70008091B900887F803609F49CC068F588327D
:100C800009F45BC090F4803109F454C038F488232F
:100C900009F4F6C0883009F44DC0F6C0883109F473
:100CA0004CC0803209F45DC0EFC0803409F468C0E4
:100CB00048F4803309F455C0883309F0E5C08093C7
:100CC000A501D8C0803509F44FC0883509F45DC04E
:100CD000883409F0D9C0D6C0883909F4C7C0A8F44F
:100CE000883709F467C038F4883609F463C0803760
:100CF00009F460C0C9C0883809F4B8C0803909F463
:100D00005FC0803809F0C0C05BC0803B09F486C07A
:100D100038F4803A09F466C0883A09F47FC0B4C058
:100D2000803C09F4A7C0883C09F4A4C0883B09F4BE
:100D30008AC0AAC08091C80110C09091C70180915B
:100D4000C601981770F5E091C70181E08E0F80937E
:100D5000C701F0E0EA55FE4F80818093BB0085EC2F
:100D600086C08093A5018EC0E091C70181E08E0FFF
:100D70008093C7018091BB00F0E0EA55FE4F80836D
:100D80009091C7018091C6016EC0E091C70181E0DA
:100D90008E0F8093C7018091BB00F0E0EA55FE4FB3
:100DA00080838091F90181116DC081E08093F80109
:100DB00084EA61C083E08093FA011092A401CFCF4E
:100DC0008091A401803208F051C0E091A40181E03B
:100DD0008E0F8093A4018091BB00F0E0EC57FE4F92
:100DE0008083BDCF85EC8093BC001092FA01809186
:100DF000A401803230F4E091A401F0E0EC57FE4F02
:100E000010826091A40170E0E0918201F091830171
:100E100084E891E009951092A40136C084E08093A3
:100E2000FA011092810110928001E0917E01F0910F
:100E30007F01099580918001811105C081E0809337
:100E4000800110925E01E091810181E08E0F80931C
:100E50008101F0E0E25AFE4F80818093BB009091C7
:100E6000810180918001981708F479CF85E88093FB
:100E7000BC000AC085EC8093BC001092FA0104C04B
:100E80001092A5010E94AB03FF91EF91BF91AF912A
:100E90009F918F917F916F915F914F913F912F9192
:100EA0000F900FBE0F901F901895EEE3F2E01382A3
:100EB000128288EE93E0A0E0B0E084839583A6835D
:100EC000B78328E031E03183208325EC30E035879B
:100ED000248724EC30E03787268720EC30E0318B04
:100EE000208B21EC30E0338B228B22EC30E0358BF1
:100EF000248B26EC30E0378B268B118E128E138ECE
:100F0000148E20E520932303E4E2F3E0138212829F
:100F100084839583A683B78388E191E0918380835E
:100F200086E393E00E948F0383E393E00E948F03A4
:100F300080E393E00C948F03789484B5826084BD41
:100F400084B5816084BD85B5826085BD85B58160CD
:100F500085BD80916E00816080936E00109281004B
:100F60008091810082608093810080918100816006
:100F700080938100809180008160809380008091C7
:100F8000B10084608093B1008091B0008160809353
:100F9000B00080917A00846080937A0080917A001A
:100FA000826080937A0080917A00816080937A00D9
:100FB00080917A00806880937A001092C10010922C
:100FC00032021092330210923402109235021092C3
:100FD000000210920102109202021092030260EDD0
:100FE00077E080E090E00E946A028EE392E09093C6
:100FF0003102809330020E9487000E94A402009177
:101000000002109101022091020230910302DC01E2
:10101000CB01801B910BA20BB30B84369105A1056C
:10102000B10538F463E070E080E090E00E946A026D
:10103000E4CF0E94A40260930002709301028093A7
:1010400002029093030264E271E080913002909179
:1010500031020E94C0046AE070E080E090E00E94EB
:101060006A0281E08093040290E59093230310923A
:10107000FE011092FD011092FC011092FB011092F2
:10108000FA018093F9011092F80161E082E10E9477
:10109000A60161E083E10E94A6018091B9008E7FE4
:1010A0008093B9008091B9008D7F8093B90088E466
:1010B0008093B80085E48093BC0061E083E00E94E7
:1010C000F20161E084E00E94F20161E086E00E94AA
:1010D000F20161E087E00E94F20160E085E00E9499
:1010E000F20160E083E00E94A60161E084E00E94DA
:1010F000A60160E086E00E94A60160E087E00E9411
:10110000A60169E070E086E393E00E94330368E0A3
:1011100070E083E393E00E9433036AE070E080E3D1
:1011200093E00E94330360E070E086E393E00E9466
:10113000B00260E070E083E393E00E94B0026CE3F1
:1011400070E080E393E00E94B0020E94870068E8AC
:1011500073E180E090E00E946A020E94A402672B83
:10116000682B692B09F007C10E94A4026230710547
:101170008105910508F0FFC03DC00E94A402609364
:10118000000270930102809302029093030266E3CF
:1011900071E080913002909131020E94C0046EE3B0
:1011A00071E080913002909131020E94C0040E944F
:1011B000A402AB01BC012AE080913002909131027F
:1011C0000E943D0460E471E0809130029091310210
:1011D0000E94C00465E070E080E090E00E946A0236
:1011E0006AE070E080E090E00E946A028091040270
:1011F00081111BC180E00E942E022FEF33E06901B4
:10120000C81AD90A81E00E942E028C0182E00E9455
:101210002E02EC0183E00E942E027C019601200F39
:10122000311F2C0F3D1F280F391F37FF02C02D5FC4
:101230003F4F3595279535952795C601821B930B12
:10124000B801621B730BAE01421B530BF701E21B8B
:10125000F30B889F5001899FB00CB00C1124669F3E
:10126000C001679F900D900D1124A80EB91E449FD8
:10127000C001459F900D900D1124A80EB91EEE9F40
:10128000C001EF9F900D900D1124A80EB91EC6014C
:101290000E94860469E571E08EE392E00E94C0043A
:1012A000C8010E94860469E571E08EE392E00E9425
:1012B000C004CE010E94860469E571E08EE392E0ED
:1012C0000E94C004C7010E94860469E571E08EE3B4
:1012D00092E00E94C004C5010E9486046BE571E0A3
:1012E0008EE392E00E94280466E571E08EE392E0CE
:1012F0000E94280461E083E00E94A60160E084E08F
:101300000E94A60164EB70E086E393E00E94B002C5
:1013100066E970E083E393E00E94B00268EC70E05D
:1013200080E090E00E946A0264EB70E083E393E067
:101330000E94B00268E572E080E090E00E946A02DC
:101340006CE370E083E393E00E94B00260E087E02A
:101350000E94A60164EF71E080E090E00E946A02C2
:1013600060E087E00E94A60164EF71E080E090E019
:101370000E946A02EBCF0E94A40260933A0270932B
:101380003B0280933C0290933D0200913602109103
:1013900037022091380230913902601771078207B5
:1013A000930740F4609336027093370280933802BB
:1013B0009093390200913602109137022091380241
:1013C000309139026B017C01C01AD10AE20AF30A9A
:1013D000970186010A3F11052105310508F40ACF5E
:1013E00060933602709337028093380290933902EB
:1013F0000E94A402009100021091010220910202B9
:1014000030910302DC01CB01801B910BA20BB30BCB
:1014100084369105A105B10508F0AFCE63E070E018
:1014200080E090E00E946A02E3CF809130029091C8
:101430003102DC01ED91FC910480F581E02D0995EC
:10144000892B99F38091300290913102DC01ED916A
:10145000FC910480F581E02D0995181619060CF011
:10146000C9CE8091300290913102DC01ED91FC9166
:101470000680F781E02D099599278336910551F073
:101480008637910509F4B6CE88359105D9F61092C4
:101490000402D8CF69E471E080913002909131026A
:1014A0000E94C0042AE041E050E060E070E08091DA
:1014B0003002909131020E943D0460E571E080911C
:1014C0003002909131020E94C00462E370E080E03B
:1014D00090E00E946A028ECE991B79E004C0991FA9
:1014E000961708F0961B881F7A95C9F7809508957E
:1014F000EE0FFF1F0590F491E02D099481E090E03C
:10150000F8940C94E60AA1E21A2EAA1BBB1BFD015B
:101510000DC0AA1FBB1FEE1FFF1FA217B307E407D2
:10152000F50720F0A21BB30BE40BF50B661F771F2A
:10153000881F991F1A9469F760957095809590950A
:101540009B01AC01BD01CF010895052E97FB1EF450
:1015500000940E94BC0A57FD07D00E94830A07FC32
:1015600003D04EF40C94BC0A5095409530952195CB
:101570003F4F4F4F5F4F08959095809570956195BF
:101580007F4F8F4F9F4F08950E94D70AA59F900DC0
:10159000B49F900DA49F800D911D11240895B7FF55
:1015A0000C94C40A0E94C40A821B930B0895A29F44
:1015B000B001B39FC001A39F700D811D1124911D27
:1015C000B29F700D811D1124911D0895F894FFCFD5
:1015D00001000000000000003301AF00FC00DA0051
:1015E000EE007A010000000017040304FB03EC0383
:1015F000DE03DD03564D4450565F317C315F564D5E
:101600004450560D0A00564D4450455F31007C0051
:101610005F564D4450450D0A00564D4450435F00FF
:0E1620005F564D4450430D0A002F002000007D
:00000001FF
