:100000000C9462000C948A000C948A000C948A0070
:100010000C948A000C948A000C948A000C948A0038
:100020000C948A000C948A000C948A000C94980416
:100030000C948A000C948A000C948A000C948A0018
:100040000C944E040C948A000C941C040C94F6033B
:100050000C948A000C948A000C948A000C948A00F8
:100060000C9459050C948A0000000000240027001D
:100070002A0000000000250028002B0000000008D6
:10008000000201000003040700000000000000005F
:1000900000000000230026002900040404040404D6
:1000A0000404020202020202030303030303010227
:1000B00004081020408001020408102001020408F6
:1000C0001020CC0611241FBECFEFD8E0DEBFCDBF7D
:1000D00022E0AAE2B1E001C01D92A63CB207E1F71E
:1000E00011E0A0E0B1E0E0EFF2E102C005900D9276
:1000F000AA32B107D9F710E0C2E6D0E004C02197D8
:10010000FE010E940809C136D107C9F70E941307F2
:100110000C9476090C940000CF92DF92EF92FF923C
:100120000F931F93CF93DF936C017A018B01C0E093
:10013000D0E0CE15DF0589F0D8016D918D01D60193
:10014000ED91FC910190F081E02DC6010995892B7C
:1001500011F47E0102C02196ECCFC701DF91CF914F
:100160001F910F91FF90EF90DF90CF900895FC01C9
:10017000918D828D981761F0828DDF01A80FB11DDE
:100180005D968C91928D9F5F9F73928F90E0089502
:100190008FEF9FEF0895FC01918D828D981731F0BC
:1001A000828DE80FF11D858D90E008958FEF9FEF10
:1001B0000895FC01918D228D892F90E0805C9F4FE6
:1001C000821B91098F73992708958BEC91E00E940F
:1001D000D90021E0892B09F420E0822F0895FC0149
:1001E000848DDF01A80FB11DA35ABF4F2C91848DC0
:1001F00090E001968F739927848FA689B7892C93F5
:10020000A089B1898C9180648C93938D848D98138F
:1002100006C00288F389E02D80818F7D8083089558
:10022000EF92FF920F931F93CF93DF93EC0181E046
:10023000888F9B8D8C8D981305C0E889F989808102
:1002400085FD24C0F62E0B8D10E00F5F1F4F0F733E
:100250001127E02E8C8DE8120CC00FB607FCFACFE8
:10026000E889F989808185FFF5CFCE010E94EF00F2
:10027000F1CF8B8DFE01E80FF11DE35AFF4FF082A5
:100280000B8FEA89FB898081806207C0EE89FF8934
:100290006083E889F98980818064808381E090E0CF
:1002A000DF91CF911F910F91FF90EF900895CF9321
:1002B000DF93EC01888D8823C9F0EA89FB8980816E
:1002C00085FD05C0A889B9898C9186FD0FC00FB640
:1002D00007FCF5CF808185FFF2CFA889B9898C9181
:1002E00085FFEDCFCE010E94EF00E7CFDF91CF91E8
:1002F000089580E090E0892B29F00E94E5008111AB
:100300000C940000089590E0FC01E458FF4F3491F4
:10031000FC01E255FF4F2491FC01E656FF4FE491AA
:10032000EE2309F43BC0332339F1333091F038F434
:100330003130A9F0323001F584B58F7D12C03730ED
:1003400091F03830A1F03430B9F4809180008F7D85
:1003500003C0809180008F77809380000DC084B5AA
:100360008F7784BD09C08091B0008F7703C08091E2
:10037000B0008F7D8093B000F0E0EE0FFF1FEE58CD
:10038000FF4FA591B4918FB7F894EC91611103C020
:1003900020952E2301C02E2B2C938FBF0895CF9331
:1003A000DF9390E0FC01E255FF4F2491FC01E656FB
:1003B000FF4F8491882361F190E0880F991FFC0121
:1003C000E859FF4FC591D491FC01EE58FF4FA5911C
:1003D000B491611109C09FB7F89488812095822358
:1003E0008883EC912E230BC0623061F49FB7F894A0
:1003F0003881822F809583238883EC912E2B2C9338
:100400009FBF06C08FB7F894E8812E2B28838FBF3B
:10041000DF91CF9108953FB7F8948091C0019091FA
:10042000C101A091C201B091C30126B5A89B05C02E
:100430002F3F19F00196A11DB11D3FBFBA2FA92F63
:10044000982F8827820F911DA11DB11DBC01CD01E0
:1004500042E0660F771F881F991F4A95D1F70895CC
:100460008F929F92AF92BF92CF92DF92EF92FF92C4
:100470006B017C010E940B024B015C01C114D10491
:10048000E104F104F1F00E940B02DC01CB018819B8
:100490009909AA09BB09883E9340A105B10570F3EB
:1004A00021E0C21AD108E108F10888EE880E83E045
:1004B000981EA11CB11CC114D104E104F10419F768
:1004C000DDCFFF90EF90DF90CF90BF90AF909F90E7
:1004D0008F900895CF92DF92EF92FF92CF93DF93A8
:1004E000EC01603282E078070CF03DC077FD06C079
:1004F000653B71052CF064EB70E002C060E070E0D9
:10050000898128E830E06901C81AD10887FDD394B1
:10051000CC0CDD1CCC0CDD1C0D2C000CEE08FF08F7
:100520008A8128E532E0281B310987FD3395220FA7
:10053000331F220F331FC901330FAA0BBB0B9C01C2
:10054000AD012C193D094E095F09DB010E943D09EF
:1005500024EB30E040E050E00E941309C20ED31EAD
:10056000E41EF51EB60188818C3080F5998148E83B
:1005700050E0491B510997FD5395440F551F440FF7
:10058000551F6417750784F09A8128E532E0291B0E
:10059000310997FD3395220F331F220F331FAB0113
:1005A000261737070CF4A90142505109440F551F73
:1005B0002FB7F89490E0FC01EE0FFF1F8E0F9F1FE6
:1005C000FC01E956FE4F528341832FBFDF91CF914B
:1005D000FF90EF90DF90CF9008951F93CF93DF931C
:1005E000EC01162F88818C3008F04EC061E0812F1D
:1005F0000E94CF018881E82FF0E09F01220F331F76
:10060000E20FF31FE956FE4F1F739081907C192B68
:10061000108319821A826CE00E94FC089CE0899F7A
:10062000B001112440E050E09A01260F371FF90174
:10063000EE0FFF1F2E0F3F1FF901E956FE4F90816D
:1006400096FD16C04F5F5F4F4C30510569F7811121
:100650000FC01092800082E080938100109285008C
:1006600010928400B19A80916F00826080936F0035
:10067000E881F0E0CF01880F991FE80FF91FE956D4
:10068000FE4F8081806480838881DF91CF911F91AC
:100690000895FC01909196019C30A0F481E0890FAF
:1006A000809396019083892F90E0FC01EE0FFF1F4D
:1006B0008E0F9F1FFC01E956FE4F88EB9BE0928353
:1006C000818308958FEF8083089585ED8093BC002A
:1006D0008091BC0084FDFCCF1092C601089540912A
:1006E0004C01262F30E0240F311D21323105DCF47E
:1006F0002091C6012430C9F4FC0180E090E0861707
:1007000058F430914C012191DC01A65DBE4FA30F3E
:10071000B11D2C930196F3CF80914C01680F60932B
:100720004C0180E0089581E0089582E008950895E5
:1007300081E090E03091CA012091C901321710F494
:1007400080E090E091958195910908958091CA018A
:100750009091C901891730F48F5F8093CA0180E0BE
:1007600090E008958FEF9FEF08958091C90190E088
:100770002091CA01821B91090895CF93DF9300D085
:10078000CDB7DEB7CB01642F49835A830E946F0334
:100790004981842F5A81952F0F900F90DF91CF912F
:1007A0000895CF93DF931F92CDB7DEB7698361E0E1
:1007B000CE0101960E946F0381E090E00F90DF91DF
:1007C000CF910895009769F0FC0101900020E9F7AE
:1007D0003197AF01481B590BBC018BEC91E00C9495
:1007E0008C0080E090E008950E940E091F920F9205
:1007F0000FB60F9211242F933F934F935F936F93F4
:100800007F938F939F93AF93BF93EF93FF938BEC63
:1008100091E00E94EF00FF91EF91BF91AF919F9106
:100820008F917F916F915F914F913F912F910F9099
:100830000FBE0F901F9018951F920F920FB60F9238
:1008400011242F938F939F93EF93FF93E091DB01FC
:10085000F091DC018081E091E101F091E20182FD03
:1008600012C090818091E4018F5F8F732091E50128
:10087000821751F0E091E401F0E0E553FE4F958FCF
:100880008093E40101C08081FF91EF919F918F914E
:100890002F910F900FBE0F901F9018951F920F92DF
:1008A0000FB60F9211242F933F938F939F93AF9383
:1008B000BF938091BC019091BD01A091BE01B09108
:1008C000BF013091BB0123E0230F2D3720F40196A7
:1008D000A11DB11D05C026E8230F0296A11DB11D63
:1008E0002093BB018093BC019093BD01A093BE01F6
:1008F000B093BF018091C0019091C101A091C2014C
:10090000B091C3010196A11DB11D8093C0019093C8
:10091000C101A093C201B093C301BF91AF919F9158
:100920008F913F912F910F900FBE0F901F901895B0
:100930001F920F920FB60F9211242F933F934F9354
:100940005F936F937F938F939F93AF93BF93EF9337
:10095000FF938091950187FF05C01092850010924A
:1009600084001BC020919501022E000C330B809156
:10097000960190E02817390784F480919501082E9C
:10098000000C990BFC01EE0FFF1F8E0F9F1FFC0147
:10099000E956FE4F808186FD15C0809195018F5FDD
:1009A0008093950120919501022E000C330B8091CC
:1009B000960190E028173907C4F4809195018C3096
:1009C00064F113C080919501082E000C990BFC0175
:1009D000EE0FFF1F8E0F9F1FFC01E956FE4F808117
:1009E00060E08F730E948301D8CF80918400909142
:1009F0008500049680349C4918F480E49CE905C085
:100A00008091840090918500049690938900809352
:100A100088008FEF809395013BC020918400309136
:100A2000850080919501082E000C990BFC01EE0FBA
:100A3000FF1F8E0F9F1FFC01E956FE4F818192819F
:100A4000820F931F90938900809388008091950175
:100A5000082E000C990BFC01EE0FFF1F8E0F9F1F3D
:100A6000FC01E956FE4F808186FF12C080919501FE
:100A7000082E000C990BFC01EE0FFF1F8E0F9F1F1D
:100A8000FC01E956FE4F808161E08F730E94830173
:100A9000FF91EF91BF91AF919F918F917F916F9156
:100AA0005F914F913F912F910F900FBE0F901F902C
:100AB00018951F920F920FB60F9211242F933F9308
:100AC0004F935F936F937F938F939F93AF93BF9356
:100AD000EF93FF938091B900887F803609F49CC022
:100AE00068F5883209F45BC090F4803109F454C091
:100AF00038F4882309F4F6C0883009F44DC0F6C0F4
:100B0000883109F44CC0803209F45DC0EFC08034F4
:100B100009F468C048F4803309F455C0883309F0FB
:100B2000E5C080937101D8C0803509F44FC0883585
:100B300009F45DC0883409F0D9C0D6C0883909F4F9
:100B4000C7C0A8F4883709F467C038F4883609F4B8
:100B500063C0803709F460C0C9C0883809F4B8C0E0
:100B6000803909F45FC0803809F0C0C05BC0803BA9
:100B700009F486C038F4803A09F466C0883A09F46A
:100B80007FC0B4C0803C09F4A7C0883C09F4A4C06D
:100B9000883B09F48AC0AAC08091940110C090914A
:100BA000930180919201981770F5E091930181E093
:100BB0008E0F80939301F0E0EE58FE4F808180937A
:100BC000BB0085EC86C0809371018EC0E0919301DB
:100BD00081E08E0F809393018091BB00F0E0EE588E
:100BE000FE4F808390919301809192016EC0E091BD
:100BF000930181E08E0F809393018091BB00F0E020
:100C0000EE58FE4F80838091C50181116DC081E057
:100C10008093C40184EA61C083E08093C60110928E
:100C20007001CFCF80917001803208F051C0E09107
:100C3000700181E08E0F809370018091BB00F0E025
:100C4000E05BFE4F8083BDCF85EC8093BC001092AB
:100C5000C60180917001803230F4E0917001F0E0C3
:100C6000E05BFE4F10826091700170E0E0914E01F8
:100C7000F0914F0180E591E009951092700136C026
:100C800084E08093C60110924D0110924C01E091D6
:100C90004A01F0914B01099580914C01811105C0E9
:100CA00081E080934C0110922A01E0914D0181E096
:100CB0008E0F80934D01F0E0E65DFE4F80818093C2
:100CC000BB0090914D0180914C01981708F479CFA9
:100CD00085E88093BC000AC085EC8093BC0010922C
:100CE000C60104C0109271010E946503FF91EF914B
:100CF000BF91AF919F918F917F916F915F914F9134
:100D00003F912F910F900FBE0F901F901895CF928B
:100D1000DF92EF92FF920F931F93E82FF92F05C0F8
:100D2000015011092109310961F19081962394172D
:100D3000B9F305C0015011092109310911F1908160
:100D400096239413F7CFC12CD12CE12CF12C0AC09F
:100D50008FEFC81AD80AE80AF80A0C151D052E05E7
:100D60003F0579F080818623841791F36C2D7D2DCA
:100D70008E2D9F2D1F910F91FF90EF90DF90CF90C0
:100D8000089560E070E080E090E01F910F91FF9087
:100D9000EF90DF90CF900895EBECF1E01382128298
:100DA00088EE93E0A0E0B0E084839583A683B783C8
:100DB00028E031E03183208325EC30E0358724873B
:100DC00024EC30E03787268720EC30E0318B208B15
:100DD00021EC30E0338B228B22EC30E0358B248BFE
:100DE00026EC30E0378B268B118E128E138E148EEC
:100DF00020E52093B002E1EBF2E0138212828483BB
:100E00009583A683B78388E191E09183808383EC07
:100E100092E00E94490380EC92E00E9449038DEB2E
:100E200092E00C944903CF93DF93CDB7DEB7A1973F
:100E30000FB6F894DEBF0FBECDBF789484B5826044
:100E400084BD84B5816084BD85B5826085BD85B56E
:100E5000816085BD80916E00816080936E001092EC
:100E60008100809181008260809381008091810067
:100E700081608093810080918000816080938000F8
:100E80008091B10084608093B1008091B000816056
:100E90008093B00080917A00846080937A00809182
:100EA0007A00826080937A0080917A0081608093DA
:100EB0007A0080917A00806880937A001092C10055
:100EC00080E58093B0021092CA011092C90110927D
:100ED000C8011092C7011092C60181E08093C5013C
:100EE0001092C40161E082E10E94830161E083E12C
:100EF0000E9483018091B9008E7F8093B900809118
:100F0000B9008D7F8093B90088E48093B80085E4B0
:100F10008093BC0061E083E00E94CF0161E084E047
:100F20000E94CF0161E086E00E94CF0161E087E08E
:100F30000E94CF0161E088E00E94CF0161E089E07A
:100F40000E94CF0161E08AE00E94CF0160E085E06D
:100F50000E94CF0161E083E00E94830161E084E0B0
:100F60000E94830160E086E00E94830160E087E0E8
:100F70000E94830169E070E083EC92E00E94ED0240
:100F800068E070E080EC92E00E94ED026AE070E0C0
:100F90008DEB92E00E94ED0266E470E083EC92E05B
:100FA0000E946A026FE070E080EC92E00E946A02A8
:100FB00060E570E08DEB92E00E946A02E091DB0157
:100FC000F091DC0182E08083E091D701F091D801BB
:100FD0001082E091D901F091DA018FEC80831092B8
:100FE000E301E091DF01F091E00186E08083E09190
:100FF000DD01F091DE01808180618083E091DD017F
:10100000F091DE01808188608083E091DD01F091C4
:10101000DE01808180688083E091DD01F091DE0156
:1010200080818F7D808368E873E180E090E00E949A
:10103000300261E087E00E94830193EB892E90E00B
:10104000992E2FE9222E20E0322E3AE0432E512C09
:10105000612C712CF4016491F1018491E82FF0E08E
:10106000EE0FFF1FE057FF4F8591949100E412E4CB
:101070002FE030E0462F0E9487066115710581053B
:10108000910539F0DC01CB010196A11DB11DBF70A6
:1010900003C080E090E0DC015C016C01990FEE0878
:1010A000FF08F7FE26C0E091CB01F091CC01019042
:1010B000F081E02D6DE28BEC91E00995222733273A
:1010C000A9012C193D094E095F0919A28E010F5D76
:1010D0001F4FCA01B901A30192010E944509605D39
:1010E000F80162938F01211531054105510589F7FA
:1010F00015C0A701960119A28E010F5D1F4FCA01ED
:10110000B901A30192010E944509605DF801629353
:101110008F01211531054105510589F7C8010E944C
:10112000E20384E291E00E94E20386E291E00E9401
:10113000E203F1EDAF16F7E0BF064CF464E670E0B1
:1011400080E090E00E9430020E94790183CF60E04D
:1011500083E00E94830168EC70E080E090E00E94F0
:10116000300264EB70E083EC92E00E946A0261E07E
:1011700083E00E94830160E971E080E090E00E94DA
:10118000300260EA70E08DEB92E00E946A0262E356
:1011900070E080E090E00E9430026AEA70E080EC4B
:1011A00092E00E946A0260E476E080E090E00E94B3
:1011B000300261E470E080EC92E00E946A0260E03C
:1011C00086E00E94830160E084E00E94830164EF76
:1011D00071E080E090E00E94300261E086E00E94D1
:1011E000830161E084E00E94830164EF71E080E0AC
:1011F00090E00E943002E3CF991B79E004C0991F70
:10120000961708F0961B881F7A95C9F78095089560
:10121000EE0FFF1F0590F491E02D099481E090E01E
:10122000F8940C947609052E97FB1EF400940E9406
:101230002A0957FD07D00E94450907FC03D04EF448
:101240000C942A0950954095309521953F4F4F4F6A
:101250005F4F089590958095709561957F4F8F4F62
:101260009F4F08950E946709A59F900DB49F900D10
:10127000A49F800D911D11240895B7FF0C9432098D
:101280000E943209821B930B0895A1E21A2EAA1B19
:10129000BB1BFD010DC0AA1FBB1FEE1FFF1FA21726
:1012A000B307E407F50720F0A21BB30BE40BF50B23
:1012B000661F771F881F991F1A9469F760957095AC
:1012C000809590959B01AC01BD01CF010895A29F2F
:1012D000B001B39FC001A39F700D811D1124911D0A
:1012E000B29F700D811D1124911D0895F894FFCFB8
:1012F000010000000000000010018C00D900B700C0
:10130000CB00570100000000D103BD03B503A603C5
:0A131000980397032F000D0A000058
:00000001FF
